:020000040800F2
:10000000F80500200101000885100008EF0A00082B
:1000100081100008B90600081B1D00080000000040
:10002000000000000000000000000000D5130008E0
:10003000BD06000800000000B91100088515000881
:100040001B0100081B0100081B0100081B01000820
:100050001B0100081B010008C10600081107000869
:100060001B0100081B0100081B0100081B01000800
:100070001B0100081B0100081B0100081B010008F0
:100080001B0100081B0100081B0100081B010008E0
:100090001B0100081B0100081B0100086507000880
:1000A0001B0100081B0100081B0100081B010008C0
:1000B0001B010008E91500081B0100081B010008CE
:1000C0001B0100081B0100081B0100081B010008A0
:1000D0001B010008891900081B010008111A0008FB
:1000E0001B0100081B0100081B010008DFF80CD0F1
:1000F00000F042FA0048004729290008F8050020CE
:100100000648804706480047FEE7FEE7FEE7FEE7B1
:10011000FEE7FEE7FEE7FEE7FEE7FEE789150008DB
:10012000ED00000840EA01039B0703D009E008C97D
:10013000121F08C0042AFAD203E011F8013B00F8AC
:10014000013B521EF9D27047D2B201E000F8012BF8
:10015000491EFBD270470022F6E710B513460A4647
:1001600004461946FFF7F0FF204610BD421C10F868
:10017000011B0029FBD1801A704730B50B460146A0
:1001800000202022012409E021FA02F59D4205D336
:1001900003FA02F5491B04FA02F52844151EA2F1E0
:1001A0000102F1DC30BD2DE9F05F054600209246EA
:1001B0009B4688460646814640241BE02846414629
:1001C0004746224600F0F9F953465A46C01A914173
:1001D00010D311461846224600F0E0F92D1A67EBBD
:1001E00001084F4622460120002100F0D7F917EB05
:1001F00000094E41201EA4F10104DFDC48463146CF
:100200002A464346BDE8F09F2DE9FE4F804681EA2D
:100210000300C00F0C46009021F0004123F0004580
:10022000B8EB0200A94105D24046214690461C4643
:100230000B46024623F00040104347D0270DC7F37A
:100240000A00C3F30A510290401A019040286BDA69
:10025000C3F3130040F4801B0098924620B10023A2
:10026000D2EB030A63EB0B0B01985946C0F1400235
:10027000504600F093F906460D4650465946019AFD
:1002800000F0ABF910EB08006141002487EA11523D
:1002900084EAE7731A4340D0009A62B3019A012AB4
:1002A0004FEA075215DC001B61EB02014FF00042E0
:1002B00002EA0752CDE90042001C41F580113246A6
:1002C0002B4600F0ABF903B0BDE8F08F4046214665
:1002D000F9E7001B61EB0201001C41F580130018D7
:1002E0005B412018A2F5001747EB030140EAD570E7
:1002F000B6196D4111E06D084FEA360645EAC07542
:100300004FEA0752001B61EB0201001C41F580110E
:1003100049084FEA30000019514132462B4603B0DC
:10032000BDE8F04F00F06BB90098012240000023B7
:10033000D0EB020263EBE073009821464FEAE074D1
:10034000B8EB000061EB0401E9E783F000435BE7F1
:1003500081F0004158E72DE9FE4F81EA030404F0E3
:10036000004421F0004100944FF0000B23F00043C3
:1003700050EA01045ED052EA03045BD0C3F30A548E
:10038000C1F30A552C44A4F2F3340194A0FB0254A7
:10039000C1F3130141F48011C3F3130343F4801339
:1003A00001FB024400FB034E840A970A44EA81548D
:1003B00047EA8357A4FB076802958D0A05FB07856A
:1003C0004FEA932C04FB0C542705029D4FEA065874
:1003D00047EA1637B5EB08056EEB070C870E920E51
:1003E00047EA811742EA8312A7FB0201B6EB0B0131
:1003F00064EB00042B0D43EA0C335E1844EB1C50F5
:10040000DA465146E7FB0201C5F313044FEA0B330A
:1004100043EA14534FEA0432019C43EA0603A4F171
:100420000C040294009CCDE900B400F0F7F803B08E
:10043000BDE8F08F00200146F9E72DE9F04D81EA93
:10044000030404F0004B21F0004514464FF0000A6D
:1004500023F0004150EA050220D054EA01021DD0E9
:10046000C5F30A570246C5F31303C1F31300C1F3E2
:100470000A5640F4801543F48013A7EB0608101BBE
:10048000D64608F2FD3873EB050002D308F10108E7
:1004900001E092185B41B8F1000F03DA0020014639
:1004A000BDE8F08D00204FF48011064684460EE032
:1004B000171B73EB050705D3121B63EB05030643FC
:1004C0004CEA010C49084FEA300092185B4150EAAF
:1004D0000107EDD152EA030012D082EA040083EA58
:1004E0000501084305D0101BAB4106D201220023B1
:1004F00006E000224FF0004302E06FF001025310CB
:100500001AEB06004CEB085110EB0A0041EB0B0113
:10051000BDE8F04D00F073B8C1F30A52C1F3130106
:1005200040F2FF3341F480119A4202DA0020014682
:10053000704740F233439A42A2F2334202DC524205
:1005400000F03BB800F02AB830B5041E71F1000489
:1005500004DB4FF00044404264EB0101141E73F1D0
:10056000000405DB1C464FF00043524263EB0403DA
:10057000994208BF904230BD064C074D06E0E06846
:1005800040F0010394E8070098471034AC42F6D3DA
:10059000FFF7B0FD242C0008442C0008202A04DBBF
:1005A000203A00FA02F1002070479140C2F1200386
:1005B00020FA03F3194390407047202A04DB203AC5
:1005C00021FA02F00021704721FA02F3D040C2F173
:1005D00020029140084319467047202A06DBCB17BA
:1005E000203A41FA02F043EAE07306E041FA02F3EE
:1005F000D040C2F12002914008431946704710B51F
:10060000141E73F1000408DA401C41F10001921835
:100610005B411A4301D120F0010010BD2DE9F04DDE
:1006200092469B4611B1B1FA81F202E0B0FA80F233
:1006300020329046FFF7B2FF04460F4640EA0A0018
:1006400041EA0B0153465A46084313D0114653EA78
:10065000010019D0C8F140025046FFF7AEFF054631
:100660000E46504659464246FFF798FF084305D0CC
:10067000012004E020463946BDE8F08D0020054306
:1006800046EAE0762C4337430A986305E40AA0EB78
:1006900008000022FD0A44EA47540A3002D500202F
:1006A0000146E9E7010510196941DDE9084500192E
:1006B0006941BDE8F04DA2E700BFFEE770470000CA
:1006C00010B5012000F0B8F801281BD101210E4817
:1006D00000F004FA98B90D480068C0430B4908605F
:1006E0000846006830B140F2DC514FF0804001F024
:1006F000EDF804E04FF4FA71080701F0E7F8012083
:1007000000F094F810BD0000000C01401C00002017
:1007100010B5022000F090F801281BD102210E48EC
:1007200000F0DCF998B90D480068C0430B49086037
:100730000B48006830B140F2DC514FF0804001F0CE
:10074000C7F804E04FF4FA71080701F0C1F802207D
:1007500000F06CF810BD0000000C014020000020EB
:100760001C00002010B54FF4807000F065F848B10F
:1007700000F024FD4FF4807000F052F84FF48070C8
:1007800000F054F8802000F057F801281BD1802198
:100790000D4800F0A3F998B90C480068C0430B4914
:1007A00008600846006830B140F2DC514FF08040EC
:1007B00001F092F804E04FF4FA71080701F08CF8A8
:1007C000802000F033F810BD000801402400002014
:1007D0000EB50121084600F05BFD0821012000F064
:1007E00089F84FF48070019000208DF808000C20EB
:1007F0008DF8090001208DF80A0001A800F030F8FA
:1008000017208DF8000002208DF801008DF80200FD
:1008100001208DF80300684600F036FC0EBD000094
:100820000149086070470000140401400149086054
:100830007047000014040140014600200022074BCD
:100840001B6803EA0102054B14331B680B4013B10C
:100850000AB1012000E000207047000000040140C0
:10086000002123498279002A3AD00A461268036897
:100870009A430B461A600A1D126803689A430B1DBF
:100880001A60027911440A6803681A430A60184A18
:100890000832126803689A43154B08331A601A1D10
:1008A000126803689A43124B0C331A604279102A7B
:1008B0000ED11A1F126803681A430D4B08331A60D1
:1008C0001A1D126803681A43094B0C331A600DE0B5
:1008D0000749427911440A6803681A430A6005E02F
:1008E000027911440A6803689A430A60704700005D
:1008F0000004014030B500228B071C0F0F2303FAC0
:1009000004F20B4B8C1053F824309343084C8D1099
:1009100044F8253023468C1053F824308C07240FDC
:1009200000FA04F42343024C8D1044F8253030BD06
:10093000080001402DE9F041024600250026002074
:1009400000230024002791F803C00CF00F0591F854
:1009500003C00CF0100CBCF1000F03D091F802C0E2
:100960004CEA050591F800C0BCF1000F31D01468C5
:1009700000202BE04FF0010C0CFA00F3B1F800C09E
:100980000CEA03069E4220D183004FF00F0C0CFAB4
:1009900003F7BC4305FA03FC4CEA040491F803C0D6
:1009A000BCF1280F06D14FF0010C0CFA00FCC2F884
:1009B00014C00AE091F803C0BCF1480F05D14FF014
:1009C000010C0CFA00FCC2F810C0401C0828D1D35E
:1009D0001460B1F800C0BCF1FF0F34DD5468002092
:1009E0002EE000F1080C4FF0010808FA0CF3B1F802
:1009F00000C00CEA03069E4221D183004FF00F0C89
:100A00000CFA03F7BC4305FA03FC4CEA040491F822
:100A100003C0BCF1280F05D100F1080C08FA0CF84E
:100A2000C2F8148091F803C0BCF1480F07D100F15F
:100A3000080C4FF0010808FA0CF8C2F81080401CAE
:100A40000828CED35460BDE8F0810000F0B50A4616
:100A5000002300240021002500F00046B6F1004FDD
:100A600002D11D4EF16901E01B4E7168C0F30345D0
:100A700083B200F44016B6F5401F08D121F0706132
:100A8000154E766826F07066134F7E6012E000F413
:100A90008016B6F5801F06D1032606FA05F4A14399
:100AA00041F0706106E0460D360103FA06F6B143E7
:100AB00041F0706122B1460D360103FA06F631436A
:100AC00000F00046B6F1004F02D1034EF16101E0A3
:100AD000014E7160F0BD00000000014002460020A0
:100AE00093680B400BB1012000E00020704700BF6D
:100AF000FEE7000008B50121092000F0C9FB012133
:100B00001D48FFF7A3FF8020ADF8000010208DF8EE
:100B1000030003208DF8020069461848FFF70AFF1A
:100B20002020ADF8000069461448FFF703FF1020AD
:100B3000ADF8000069461148FFF7FCFE0820ADF84B
:100B4000000069460D48FFF7F5FE4020ADF80000B3
:100B500048208DF8030069460848FFF7EBFE4FF484
:100B60008070ADF8000004208DF80300694603484A
:100B7000FFF7E0FE08BD000000023000000C01405D
:100B800070B5F4B0E0213CA8FFF7E5FAE02228496F
:100B900004A8FFF7C7FA264BE0330FCB8DE80F0010
:100BA000012600243DE000F089F808B900263AE06B
:100BB0001DF80410C12000F0E5F90021C32000F069
:100BC000E1F90421082000F0DDF9012001F052FED6
:100BD0000021082000F0D6F9012001F04BFE00258D
:100BE0000EE004A800EB4410405D00B90AE004A840
:100BF00000EB4410415D052000F0C4F9681CC5B24B
:100C0000202DEEDB00BF2946B92000F0BBF9FF2103
:100C1000B22000F0B7F90421372000F0B3F9601CCE
:100C2000C4B20E2CBFDB00BF304674B070BD0000F4
:100C3000342B000810B54321352000F0A3F9092119
:100C40001C2000F09FF92021BD2000F09BF901211C
:100C5000082000F097F9052001F00CFE0021082083
:100C600000F090F9052001F005FE00F027F808B922
:100C7000002010BDFF21B22000F084F906213720AA
:100C800000F080F9052001F0F5FD0621372000F085
:100C900079F9052001F0EEFD0B211C2000F072F91E
:100CA0001021292000F06EF90021BD2000F06AF922
:100CB0000120DEE710B500F01DF810BD70B500266C
:100CC00000250CE0B22000F0B3F80446212C01D13D
:100CD000012606E0142001F0CDFD681CC5B2052DEB
:100CE000F0DB00BF304670BD10B5C52000F0A0F8A5
:100CF00010BD000010B508201949087000F032F846
:100D00000021BD2000F03EF94821172000F03AF9FB
:100D1000052001F0AFFD80213C2000F033F90721D0
:100D20003E2000F02FF9FF21382000F02BF9072199
:100D30003A2000F027F90021402000F023F9082193
:100D4000422000F01FF90021442000F01BF9082187
:100D5000462000F017F9052001F08CFD10BD0000C1
:100D60006000002010B5062000F062F83521172041
:100D700000F008F9052001F07DFD062000F058F88C
:100D80000321892000F0FEF8052001F073FD4321C6
:100D9000CF2000F0F7F8052001F06CFD0221CB20F8
:100DA00000F0F0F80B21112000F0ECF81F4800785B
:100DB000402810D100211E2000F0E4F80F21192056
:100DC00000F0E0F818211B2000F0DCF82C211D2099
:100DD00000F0D8F80FE000211E2000F0D3F83F21EA
:100DE000192000F0CFF848211B2000F0CBF81F217C
:100DF0001D2000F0C7F8052001F03CFD0421CD20A6
:100E000000F0C0F84C21172000F0BCF8052001F0DC
:100E100031FD0021B92000F0B5F84F21CF2000F0BE
:100E2000B1F8FF216F2000F0ADF810BD6000002088
:100E30002DE9F041054600240026A04605270020A4
:100E40003A490860012001F03BFD00BF1DE007F0BA
:100E5000800020B101203549091D086003E0002011
:100E60003249091D0860012001F02AFD00202F49A8
:100E70000C3108607806070E012001F021FD0120E9
:100E80002B49C1F89C01601CC4B2082CDFDB002494
:100E90001DE005F0800020B101202449091D0860F3
:100EA00003E000202149091D0860012001F008FD30
:100EB00000201E490C3108606806050E012001F073
:100EC000FFFC01201A49C1F89C01601CC4B2082C27
:100ED000DFDB012001F0F4FC00241BE07006060EAD
:100EE00012487838006800F0FF08012001F0E8FCA3
:100EF00000200F49C1F89C01B8F1010F01D146F063
:100F00000106012001F0DCFC012008490C310860D9
:100F1000601CC4B2082CE1DB012001F0D1FC0120EF
:100F2000024908603046BDE8F0810000908121420E
:100F30000080214210B5012010490860052001F011
:100F400099FC00200E49C1F88C01052001F092FCAB
:100F500001200A490860052001F08CFC00200849A6
:100F6000C1F89001052001F085FC01200349091D0D
:100F70000860052001F07EFC10BD00008C8121423C
:100F8000008021422DE9F04105460E460024042749
:100F9000002039490860012001F092FC00BF1DE0EB
:100FA00007F0800020B101203349091D086003E0EB
:100FB00000203149091D0860012001F081FC00205A
:100FC0002D490C3108607806070E012001F078FCED
:100FD00001202A49C1F89C01601CC4B2082CDFDB47
:100FE00000241DE005F0800020B101202249091DE8
:100FF000086003E000202049091D0860012001F07D
:101000005FFC00201C490C3108606806050E0120B9
:1010100001F056FC01201949C1F89C01601CC4B2C2
:10102000082CDFDB00241DE006F0800020B1012049
:101030001149091D086003E000200F49091D0860DF
:10104000012001F03DFC00200B490C3108607006C6
:10105000060E012001F034FC01200849C1F89C0172
:10106000601CC4B2082CDFDB012001F029FC012048
:1010700001490860BDE8F081908121420080214251
:1010800000BFFEE77047000070B5002100230F226B
:10109000C47804B3154C246804F4E064C4F5E06437
:1010A000210AC1F10403CA40447804FA03F18478A8
:1010B0001440214309010E4C0678A155047804F030
:1010C0001F050124AC4005786D11AD0005F1E02548
:1010D000C5F8004109E0047804F01F050124AC4084
:1010E000044D0678761145F8264070BD0CED00E001
:1010F00000E400E080E100E002490143024A11609F
:10110000704700000000FA050CED00E000B589B062
:101110000121084600F0ACF80121042000F0B8F8E5
:1011200018208DF823001320ADF8200003208DF83F
:10113000220008A91F48FFF7FDFB4FF0804000F098
:10114000C6FA0020ADF81A00ADF8160044F61F608C
:10115000ADF818004720ADF8140000208DF81C00F1
:1011600005A94FF0804000F0BDFB01A800F0A4FBF2
:101170006020ADF804000020ADF80C000120ADF8AF
:1011800006000020ADF80A0001A94FF0804000F0F1
:10119000A5FA01A94FF0804000F0ECFA01A94FF048
:1011A000804000F039FB0121880700F06AFA09B09D
:1011B00000BD0000000801407047000010B5002489
:1011C0002B20FFF735FE2849087000212920FFF762
:1011D000D9FE00210220FFF7D5FE2348007800F059
:1011E0001000C8B1B220FFF723FE212814D1BF2080
:1011F000FFF71EFE35280FD1BA20FFF719FE04466F
:10120000002C05DD042C03DC10201849087006E0D2
:1012100011201649087002E01120144908700021BD
:101220002B20FFF7AFFE00211C20FFF7ABFE0021B3
:101230002920FFF7A7FE00210220FFF7A3FE0021CF
:101240002B20FFF79FFE0021BA20FFF79BFE002115
:10125000BC20FFF797FE01210820FFF793FE002135
:101260000820FFF78FFE10BD61000020280000203D
:1012700029B1064AD2690243044BDA6104E0034A09
:10128000D2698243014BDA617047000000100240CE
:1012900029B1064A92690243044B9A6104E0034A69
:1012A00092698243014B9A6170470000001002402E
:1012B00030B500210022002400232D4D6D6805F07B
:1012C0000C0121B1042905D0082923D105E0294DBD
:1012D000056022E0274D05601FE0254D6D6805F48F
:1012E0007012234D6D6805F48034022505EB92429F
:1012F0001CB9214D554305600BE01D4D6D6805F48B
:1013000000351DB11C4D5543056002E0194D554394
:10131000056002E0174D056000BF00BF144D6D6809
:1013200005F0F0010909154D6B5C0568DD4045606D
:101330000F4D6D6805F4E061090A104D6B5C45685E
:10134000DD4085600A4D6D6805F46051C90A0B4D9A
:101350006B5C4568DD40C560054D6D6805F4404136
:10136000890B074D6B5CC568B5FBF3F5056130BDB6
:101370000010024000127A0000093D004C000020DD
:101380005C00002070B50024002500BF1DE0FFF7C1
:1013900091FC052001F06EFAFFF7F2FB28B9FFF788
:1013A000C9FD052001F066FA0DE0052001F062FAA2
:1013B000FFF740FC28B9FFF7BDFD052001F05AFA00
:1013C00001E0012503E0601CC4B2052CDFDB00BF97
:1013D000284670BD70472DE9F0418EB080460E461C
:1013E000002700243046FEF7C1FEC5B2FD208DF86F
:1013F000040000208DF80500E81CC0B28DF806003E
:1014000001208DF8070040EA0810C0B28DF80800EE
:1014100000BF03E001A8005D4740641C052CF9D320
:10142000002402E0305D4740641CAC42FAD32A46F7
:1014300031460DF10900FEF775FE681D01A90F5434
:10144000A81DC1B201A800F08DFB0EB0BDE8F0816F
:1014500008B548208DF803004FF4E040ADF80000D7
:1014600003208DF8020069460148FFF763FA08BDC2
:10147000000C014010B500F001F810BD0CB50020C3
:10148000019000903348006840F480303149086092
:1014900000BF3048006800F4003000900198401C04
:1014A0000190009818B90198B0F5A06FF1D12948C2
:1014B000006800F4003010B10120009001E000202D
:1014C00000900098012843D12348006840F01000A4
:1014D000214908600846006820F0030008600846BB
:1014E000006840F0020008601A48406819494860E6
:1014F0000846406848600846406840F4806048609C
:101500000846406820F47C1048600846406840F473
:10151000E81048600846006840F08070086000BF2E
:101520000C48006800F000700028F9D009484068B5
:1015300020F00300074948600846406840F0020078
:10154000486000BF0348406800F00C000828F9D14B
:101550000CBD00000010024000200240042808D109
:101560004FF0E021096941F004014FF0E0221161E0
:1015700007E04FF0E021096921F004014FF0E0227B
:10158000116170477047000010B51348006840F0C3
:1015900001001149086008464068104908400E499A
:1015A0004860084600680E4908400B490860084634
:1015B000006820F4802008600846406820F4FE009F
:1015C00048604FF41F008860FFF754FF4FF0006041
:1015D0000449086010BD0000001002400000FFF840
:1015E000FFFFF6FE08ED00E010B50121094800F00C
:1015F00054F868B10848008840F400400649088063
:101600000121044800F03AF80021024800F039F8BE
:1016100010BD0000000400404A0000207FB50546D0
:101620000C4601210220FFF723FEADF80450ADF86F
:1016300000400020ADF80600ADF8020069460E48F3
:1016400000F050F9012211460B4800F037F8012153
:10165000094800F016F81D208DF80C0000208DF8C8
:101660000D0002208DF80E0001208DF80F0003A858
:10167000FFF70AFD7FBD000000040040CA4302825C
:10168000704721B1028842F00102028004E0028822
:101690004FF6FE731A400280704730B502460020B4
:1016A00000230024158A05EA0103958905EA01044F
:1016B00013B10CB1012000E0002030BD1AB18389C4
:1016C0000B43838102E083898B43838170470189C7
:1016D0004FF6F872114001817047000070B5002488
:1016E00000220023058C4FF6FE7635400584028CDF
:1016F0008388048B4FF68F752C40B51E2C400D88C7
:101700002C43751E2A400D892A434D882A43144DC7
:10171000A8420BD0134DA84208D0134DA84205D0C3
:10172000124DA84202D0124DA84213D14FF6F775C0
:101730002A404D892A434FF6FB752A408D882A435B
:101740004FF6FF652B404FF6FF552B408D892B43FD
:10175000CD892B4383800483CD888586028470BD28
:10176000002C014000340140004001400044014091
:101770000048014070B5002400220023058C4FF67C
:10178000EF7635400584028C8388048B48F6FF751C
:101790002C404FF6FF452C400D884FF6FF7606EAA9
:1017A00005252C434FF6DF752A400D8906EA0515FD
:1017B0002A434D8806EA05152A43154DA84202D052
:1017C000144DA8421DD14FF67F752A404D894FF622
:1017D000FF7606EA05152A434FF6BF752A408D8825
:1017E00006EA05152A434FF6FF352B404FF2FF75E9
:1017F0002B408D8906EA85052B43CD8906EA8505B0
:101800002B4383800483CD880587028470BD00004C
:10181000002C01400034014070B500240022002358
:10182000058C4FF6FF6635400584028C8388848BD7
:101830004FF68F752C404FF6FC752C400D882C43CD
:101840004FF6FF552A400D894FF6FF7606EA05252B
:101850002A434D8806EA05252A43154DA84202D0A1
:10186000144DA8421DD14FF2FF752A404D894FF605
:10187000FF7606EA05252A434FF6FF352A408D8874
:1018800006EA05252A434EF6FF752B404DF6FF75F7
:101890002B408D8906EA05152B43CD8906EA0515EF
:1018A0002B4383808483CD888587028470BD0000AC
:1018B000002C0140003401400021018041808180E2
:1018C000C180018141818181C181704781867047DA
:1018D0000187704781877047A0F840107047818466
:1018E00070470000002202881D4B98420ED01D4B0D
:1018F00098420BD0B0F1804F08D01B4B984205D0D6
:101900001A4B984202D01A4B984204D14FF68F736B
:101910001A404B881A43174B984207D0164B9842EF
:1019200004D04FF6FF431A40CB881A4302808B88BD
:1019300083850B8803850A4B98420BD0094B98424C
:1019400008D00E4B984205D00D4B984202D00D4B5B
:10195000984201D10B7A03860123838270470000ED
:10196000002C014000340140000400400008004009
:10197000000C0040001000400014004000400140F6
:10198000004401400048014010B540F225511D4877
:1019900000F002F910B31B4800F0BAF9C4B21A48BB
:1019A000008800F40040C8B91748008800F480405F
:1019B00060B10A2C03D000201349088020E01248AF
:1019C000008840F400401049088019E00D2C06D131
:1019D0000D48008840F480400B49088010E00A4818
:1019E0000088C0F30D0009490C5407480088401CCA
:1019F0000549088008460088C72801DD00200880C6
:101A000010BD0000003801404800002064000020A4
:101A100010B540F22551164800F0BEF8F8B1144850
:101A200000F076F9C4B21348008800F40040B0B961
:101A300010480088C82813DA00210F48FFF74FFF2D
:101A40000C48008818B901210B48FFF71AFE094815
:101A500001880088401C074A10800848445405E06B
:101A60000448008840F400400249088010BD00008E
:101A7000004800404A000020000400402C010020E3
:101A800010B586B0044601210820FFF701FC0121B2
:101A90008804FFF7EDFB4FF48060ADF814000320DD
:101AA0008DF8160018208DF8170005A92248FEF7BA
:101AB00041FF4FF40060ADF8140004208DF81700CA
:101AC00005A91D48FEF736FF27208DF800000320EA
:101AD0008DF801008DF8020001208DF803006846A2
:101AE000FFF7D2FA01940020ADF80800ADF80A0023
:101AF000ADF80C00ADF810000C20ADF80E0001A9F7
:101B00000E4800F099F8012240F225510B4800F0F0
:101B10006DF80121094800F033F841F61F416320B8
:101B2000FFF77CFD00200649088000210548FFF7EB
:101B3000A8FD06B010BD0000000C014000480040A8
:101B40004A0000200004004000BF0549098801F058
:101B500040010029F9D00249091D088070470000A2
:101B60000048004030B502460B46002405E012F85C
:101B7000010BFFF7E9FF601CC4B29C42F7DB30BDEC
:101B800021B1828942F40052828104E082894DF6BB
:101B9000FF731A408281704770B50246002400230B
:101BA0000025002040F66A16B14200D100BFC1F303
:101BB000421501F01F03012606FA03F3012D02D19D
:101BC0009689334006E0022D02D1168A334001E0A7
:101BD000968A33400C12012606FA04F41688344023
:101BE00013B10CB1012000E0002070BDF0B5034638
:101BF000002400260025002040F66A17B94200D1D3
:101C000000BF1846C1F3421401F01F06012707FA6E
:101C100006F5012C01D10C3004E0022C01D110306A
:101C200000E014301AB107682F43076002E007682C
:101C3000AF430760F0BD00002DE9F04786B00546D0
:101C40000E460024A24600BFA1460027B08900B17D
:101C500000BF2F462C8A4CF6FF700440F0880443E6
:101C60002C82AC894EF6F3100440B08831890843C9
:101C7000718908430443AC81AC8A4FF6FF400440AD
:101C8000B0890443AC8201A8FFF712FB1F488742CA
:101C900002D1DDF810A001E0DDF80CA0A88900F465
:101CA000004040B10AEBCA0000EB0A10316849005D
:101CB000B0FBF1F807E00AEBCA0000EB0A1031684C
:101CC0008900B0FBF1F86420B8FBF0F004012009B2
:101CD000642101FB1089A88900F4004040B1322042
:101CE00000EBC900B0FBF1F000F00700044308E08E
:101CF000322000EB09106421B0FBF1F000F00F007E
:101D000004432C8106B0BDE8F08700000038014094
:101D100001468888C0F30800704700BFFEE7000056
:101D200010B5044634B901204449087044A000F0BD
:101D300005F982E04148007800287BD000203F4927
:101D4000087041480078062872D2DFE800F071037D
:101D50000F1333533DA000F0F1F842A10220FFF72A
:101D60003AFB40F2DC5000F085FD62E045A000F057
:101D7000E5F85EE049A000F0E1F84EA10220FFF78F
:101D80002AFB52480068C043504908600846006872
:101D900030B140F2DC514FF08040FFF797FD04E096
:101DA0004FF4FA710807FFF791FD40F2DC5000F0A4
:101DB00061FD3EE046A000F0C1F84CA10220FFF713
:101DC0000AFB51480068C0434F4908600846006854
:101DD00030B140F2DC514FF08040FFF779FD04E074
:101DE0004FF4FA710807FFF773FD40F2DC5000F082
:101DF00041FD1EE045A000F0A1F84A480068C0433C
:101E0000484908600846006830B140F2DC514FF0A4
:101E10008040FFF761FD04E04FF4FA710807FFF717
:101E20005BFD40F2DC5000F025FD02E002E0FFE740
:101E300000BF02E03CA000F081F810BD2A000020A5
:101E4000CAD5B5BD0D0A00002900002022B4FAC28F
:101E5000EBB2E2CAD422CAB6B1F0B3C9B9A60D0A30
:101E6000000000005B76375D5B6D315D5B74355D56
:101E7000B4FAC2EBB2E2CAD4CAB6B1F0B3C9B9A6D9
:101E80000000000022B2E2CAD4CDEAB1CF22CAB625
:101E9000B1F0B3C9B9A60D0A0000000022BFC9BB4A
:101EA000D8CAD5C0ACBBF822CAB6B1F0B3C9B9A67E
:101EB0000D0A00005B76375D5B6D315D5B74355DEF
:101EC000BFC9BBD8CAD5C0ACBBF800001C000020FD
:101ED00022B2BBBFC9BBD8CAD5C0ACBBF822CAB6F8
:101EE000B1F0B3C9B9A60D0A000000005B76375DFA
:101EF0005B6D315D5B74355DB2BBBFC9BBD8CAD504
:101F0000C0ACBBF8000000002000002022D3D0BAF3
:101F1000A6C0ACBBF822CAB6B1F0B3C9B9A60D0AC7
:101F20000000000024000020C7EBCBB5B3F6D2BB05
:101F3000BCB6BFDAC1EE0D0A000000000FB4054BBD
:101F400010B503A9044A029800F0DAF810BC5DF855
:101F500014FB00000D2900084400002002E008C81E
:101F6000121F08C1002AFAD170477047002001E013
:101F700001C1121F002AFBD1704700002DE9FF5F4D
:101F800082B00021DDE90430020DDDF840B00343EA
:101F900018D044F61050A2F2FF32424315141198A3
:101FA00001281FD0A5EB0B00401C5FEA000A4FF090
:101FB00000064E4FDFF83891B046504615D5CAF1AD
:101FC000000413E0119801244AA3012801D16FEA0B
:101FD0000B010298119AC0E90031C0E9024206B033
:101FE000BDE8F09FCBF10000DFE704460021404A46
:101FF000491842EB0450CDE9001012E0E00707D089
:1020000032463B4640464946FEF7A5F9804689469A
:1020100032463B4610461946FEF79DF906460F46E6
:102020006410002CEAD1DDE90401DDE90023BAF1F6
:10203000000F06DAFEF78FF942464B46FEF78BF9A2
:1020400005E0FEF7FAF942464B46FEF7F6F904467C
:102050000E460022284BFEF777FA03D84FF0FF30E8
:10206000014607E00022254B20463146FEF7CCF81A
:10207000FEF752FA102409E0002C0ADB0A220023A2
:10208000FEF791F8039B30321A55641E50EA0102A4
:10209000F2D1641C039AC4F111031444119A012A69
:1020A00003D0012208430DD10AE0084304D00020E8
:1020B0004FF0110B119072E7A3EB0B056D1E0DE0B5
:1020C0005B4504DD4FF0000205F1010504E003DA91
:1020D0004FF00002A5F10105002AECD002981199F9
:1020E000C0E90231C0E9004579E700000000144072
:1020F0000000F03F300000000000F0430000E03F2F
:102100002DE9FF4F95B09B468946064600250FE214
:10211000252877D100242746F84A0121059400E0BC
:10212000044316F8013F203B01FA03F01042F7D1B7
:1021300030782A2811D06FF02F033078A0F13002C8
:10214000092A16D8059A44F0020402EB820203EB36
:1021500042021044761C0590EFE759F8042B0592D3
:10216000002A03DA504244F40054059044F002047B
:10217000761C30782E2816D116F8010F44F004048E
:102180002A280DD06FF02F023078A0F13003092BF0
:1021900009D807EB870302EB4303C718761CF3E764
:1021A00059F8047B761C30786C280FD006DC4C285C
:1021B00017D068280DD06A2814D104E0742810D0F4
:1021C0007A280FD10DE044F400140AE044F480149E
:1021D00001E044F440147278824202D104F5801484
:1021E000761C761C307866280BD013DC582877D004
:1021F00009DC002875D04528F6D04628F4D04728B9
:102200001AD19DE118E0632835D0642879D065287B
:1022100012D195E1702873D008DC6728F1D06928C5
:102220006FD06E280DD06F2806D1B5E073282CD062
:10223000752875D0782874D05A46179990476D1C28
:1022400075E1C4F30250022809D003280DD0D9F853
:10225000001004280DD00D6009F1040967E1D9F8D8
:102260000010EA17C1E90052F6E7D9F800100D8016
:10227000F2E70D70F0E719F8041B8DF8001000204C
:102280008DF80100EA46012003E059F804AB4FF055
:10229000FF3061074FF0000102D40DE008F10101A9
:1022A0008846B9420FDA8045F8DB1AF80810002991
:1022B000F4D108E008F1010188468142FADB1AF8FE
:1022C00008100029F6D105985B46A0EB08072146C7
:1022D0003846179A00F094FA284400EB080507E006
:1022E0004DE029E10DE01AF8010B5A461799904785
:1022F000B8F10108F7D25B4621463846179A13E138
:1023000042E00A220092C4F302524FF0000A022A6D
:1023100008D059F804CB032A4FEAEC710AD00DE03B
:1023200029E02AE009F1070121F00702F2E802C1E1
:10233000914609E00FFA8CFC4FEAEC71042A03D1B4
:102340004FFA8CFC4FEAEC71002907DA0A460021AB
:10235000DCF1000C61EB02012D2202E0220504D524
:102360002B228DF80420012203E0E20701D0202275
:10237000F7E7904659E00A2102E010220DE0102113
:102380004FF0000A00910BE010224FF0000A44F0D9
:1023900004040827009203E008224FF0000A00928C
:1023A000C4F30252022A05D059F804CB0021032AB3
:1023B00008D009E009F1070121F00702F2E802C1A3
:1023C000914605E01FFA8CFC042A01D10CF0FF0CA9
:1023D0004FF00008220728D5702806D0009B83F014
:1023E000100353EA0A0305D00EE040228DF80420C2
:1023F000012208E05CEA010206D030228DF80420B8
:102400008DF8050002229046009B83F0080353EAF2
:102410000A030AD15CEA010201D1620705D5302224
:102420008DF804204FF001087F1E582804D034A0F6
:1024300003900EA802900DE036A0F9E753466046DF
:10244000009AFDF7B0FE84460398825C0298401E15
:10245000029002705CEA0100F0D1029806A9081A05
:1024600000F1200A600702D524F4803400E001273F
:10247000574502DDA7EB0A0000E0002000EB0A014F
:10248000009005984144401A0590E00306D45B464D
:102490002146179A059800F0B3F90544002706E095
:1024A00001A85A46C05D179990476D1C7F1C47458F
:1024B000F6DBE0030CD55B462146179A059800F041
:1024C0009FF9054404E030205A46179990476D1C47
:1024D0000099481E00900029F5DC08E00298029956
:1024E0005A460078491C0291179990476D1CBAF121
:1024F0000001AAF1010AF1DC65E1000009280100F0
:102500003031323334353637383961626364656669
:10251000000000003031323334353637383941422B
:10252000434445460000000000F058F90544761C7D
:10253000307800287FF4ECAD19B02846BDE8F08F64
:10254000620700D4062709F1070222F0070CFCE815
:102550000223E14603F000485FEA080C02D00FF2C4
:10256000702C0DE05FEA045C02D50FF2682C07E0E6
:102570005FEAC47C02D00FF2602C01E0AFF2700C75
:102580004FF0FF3823F00043CDF850C065280CD041
:1025900006DC452809D046281DD047283DD13DE01E
:1025A000662818D067287ED138E00021112F01DB82
:1025B000112000E0781CCDE9000106A90EA8FFF764
:1025C000DDFCDDE90F010E9A03910021009207F175
:1025D000010A04914DE04FF000400097CDE9011051
:1025E00006A90EA8FFF7CAFCDDE90F0203920E9BB5
:1025F00011990022DDF80CA00093049211B9791C06
:1026000000EB010AB7EB0A0004D4C0F1FF3007F178
:10261000010A0490AAEB0700019044E0012F00DAC0
:1026200001270021112F01DD112000E03846CDE9FE
:10263000000106A90EA8FFF7A1FCDDE90F010E9A23
:102640000391002104910092BA4621070CD403990A
:10265000514500DA8A46BAF1010F05DD009AAAF168
:102660000101515C302908D0B84202DA10F1040FA0
:1026700006DA0121CDE9011015E0AAF10101E9E72F
:10268000002805DC049901440491AAEB000102E052
:10269000411C514500DD8A460499401A401C0190B6
:1026A0004FF000400290200704D40198504501DB10
:1026B000CDF8048000208DF84F0002980DF14F07EF
:1026C000B0F1004F25D02B200E9002984FF0020859
:1026D00000280CDA404202902D200E9007E00A21DB
:1026E0000298FDF74AFD3031029007F8011DB8F15C
:1026F0000001A8F10108F2DC02980028EFD1791E50
:102700000E980870307800F0200040F0450007F87F
:10271000020D12A8C01B00F107081498007800B140
:10272000012000EB0A01019801EBE071059841449A
:10273000401A401E0590E00306D45B462146179AD6
:10274000059800F05DF805441498007818B15A46D1
:10275000179990476D1CE00324D55B462146179AD4
:10276000059800F04DF805441CE00498002807DBAC
:10277000DDE90301884203DD0098405C179901E020
:10278000179930205A469047049805F10105401CDE
:1027900004900198401E019004D12E205A461799AA
:1027A00090476D1CBAF10001AAF1010ADDDC05E0D9
:1027B00017F8010B5A46179990476D1CB8F10001A4
:1027C000A8F10108F4DC5B462146179A0598ABE6B0
:1027D0002D0000002B000000200000002DE9F0413A
:1027E000044600251E461746880404D405E03946F1
:1027F0002020B0476D1C641EF9D52846BDE8F08145
:102800002DE9F041044600251E469046C80301D537
:10281000302700E02027880404D505E041463846EB
:10282000B0476D1C641EF9D52846BDE8F081000054
:1028300010B56FF00400FEF791FE0A4800680A49DF
:10284000B0FBF1F0094908700846007800EB400140
:10285000C1EBC0104FF6FF7101EAC00004490880C7
:1028600010BD00002C00002000127A004000002063
:10287000420000200146114A12884A434FF0E023EB
:102880005A6100229A611A46126942F001021A61E5
:1028900000BF4FF0E022106900F001021AB100F40D
:1028A0008032002AF5D04FF0E022126922F00102B6
:1028B0004FF0E0231A6100229A6170474200002025
:1028C0000146114A12784A434FF0E0235A61002230
:1028D0009A611A46126942F001021A6100BF4FF074
:1028E000E022106900F001021AB100F48032002ADF
:1028F000F5D04FF0E022126922F001024FF0E02300
:102900001A6100229A6170474000002000BF054A0A
:10291000128802F04002002AF9D0C2B2014B1B1DFE
:102920001A807047003801404FF4A060FEF7E4FBC6
:10293000FFF77EFFFEF7EAFBFEF7DCF8FDF748FF46
:10294000FEF7F8FA4FF4165000F0A4F84FF41650C2
:10295000FFF796F8FEF77CFD4FF4FA710807FEF7D3
:10296000B5FF4FF4FA710807FEF7B2FF4FF4FA71A2
:102970000807FEF7AFFF00202949087029490860C1
:1029800029A0FFF7DBFA49E04FF480512948FEF710
:10299000A5F818B128A10220FEF71DFD4FF4005143
:1029A0002448FEF79BF818B12AA10220FEF713FD78
:1029B0004FF480411F48FEF791F818B12DA1022075
:1029C000FEF709FD16480078102815D003DC48B141
:1029D00001281DD104E011281BD0312818D100E0B6
:1029E00000BF1AE001200E490870FEF7CBFC10B9B9
:1029F00031200B49087010E0FEF776F92449087081
:102A000008460078FFF78CF900200549087004E0BB
:102A100000BF00200249087000BF00BFB4E70000FB
:102A20002800002090812142D4CBD0D0B3CCD0F26A
:102A30000D0A0000000C01405B76375D5B6D315D77
:102A40005B74355DBFC9BBD8CAD5C0ACBBF8D2D1A9
:102A5000C2FA00005B76375D5B6D315D5B74355D9E
:102A6000B2BBBFC9BBD8CAD5C0ACBBF8D2D1C2FAC1
:102A7000000000005B76375D5B6D315D5B74355D3A
:102A8000D3D0BAA6C0ACBBF8D2D1C2FA00000000C5
:102A90002900002010B586B00446012144F204004C
:102AA000FEF7F6FB4FF40070ADF8140003208DF82C
:102AB000160018208DF8170005A91C48FDF73AFFED
:102AC0004FF48060ADF8140004208DF8170005A9BC
:102AD0001648FDF72FFF25208DF8000003208DF804
:102AE00001008DF8020001208DF803006846FEF712
:102AF000CBFA01940020ADF80800ADF80A00ADF85B
:102B00000C00ADF810000C20ADF80E0001A908482B
:102B1000FFF792F8012240F225510548FFF766F8C9
:102B200001210348FFF72CF806B010BD0008014052
:102B3000003801407869616F206A69650000000013
:102B40000000000000000000000000000000000085
:102B500000000000646169206D6120636520736876
:102B600069000000000000000000000000000000FC
:102B7000000000006365207368692077616E206241
:102B800069000000000000000000000000000000DC
:102B9000000000006B65206875692073686F752000
:102BA0006C61206A69000000000000000000000065
:102BB000000000006275206B6520687569207368ED
:102BC0006F75206C61206A69000000000000000041
:102BD00000000000796F7520686169206C61206ACF
:102BE000690000000000000000000000000000007C
:102BF000000000006B65206875692073686F7520A0
:102C00006C61206A6920746F6E67206D616E0000D0
:102C100000000000000102030405000000000000A5
:102C200000000000442C00080000002064000000A8
:102C30005C1F0008A82C0008640000209405000018
:102C40006C1F0008FD000202FDFD000203FCFD00F8
:102C50000204FBFD000221DEFD0002887700000077
:102C60000000000000000000000000000000000064
:102C700000A24A040000000000000000010203045A
:102C80000607080900000000000000000000000026
:102C90000000000001020304010203040607080902
:082CA000020406080000000018
:0400000508000101ED
:00000001FF
